{
  "contractName": "PatientRecords",
  "abi": [
    {
      "constant": true,
      "inputs": [
        {
          "name": "",
          "type": "uint256"
        }
      ],
      "name": "patients",
      "outputs": [
        {
          "name": "ID",
          "type": "string"
        },
        {
          "name": "name",
          "type": "string"
        },
        {
          "name": "Email",
          "type": "string"
        },
        {
          "name": "Contact_Number",
          "type": "string"
        },
        {
          "name": "Address",
          "type": "string"
        }
      ],
      "payable": false,
      "stateMutability": "view",
      "type": "function",
      "signature": "0x93119a83"
    },
    {
      "inputs": [],
      "payable": false,
      "stateMutability": "nonpayable",
      "type": "constructor",
      "signature": "constructor"
    },
    {
      "constant": false,
      "inputs": [
        {
          "name": "_name",
          "type": "string"
        },
        {
          "name": "_ID",
          "type": "string"
        },
        {
          "name": "_Email",
          "type": "string"
        },
        {
          "name": "_Contact_Number",
          "type": "string"
        },
        {
          "name": "_Address",
          "type": "string"
        }
      ],
      "name": "registerPatient",
      "outputs": [],
      "payable": false,
      "stateMutability": "nonpayable",
      "type": "function",
      "signature": "0x711e941c"
    },
    {
      "constant": false,
      "inputs": [
        {
          "name": "_name",
          "type": "string"
        },
        {
          "name": "_ID",
          "type": "string"
        },
        {
          "name": "_Email",
          "type": "string"
        },
        {
          "name": "_Contact_Number",
          "type": "string"
        },
        {
          "name": "_Address",
          "type": "string"
        }
      ],
      "name": "registerDoctor",
      "outputs": [],
      "payable": false,
      "stateMutability": "nonpayable",
      "type": "function",
      "signature": "0xbcea09ac"
    }
  ],
  "bytecode": "0x608060405234801561001057600080fd5b50336000806101000a81548173ffffffffffffffffffffffffffffffffffffffff021916908373ffffffffffffffffffffffffffffffffffffffff16021790555033600160006101000a81548173ffffffffffffffffffffffffffffffffffffffff021916908373ffffffffffffffffffffffffffffffffffffffff160217905550610f88806100a16000396000f3fe608060405234801561001057600080fd5b506004361061005e576000357c010000000000000000000000000000000000000000000000000000000090048063711e941c1461006357806393119a831461037a578063bcea09ac146105d1575b600080fd5b610378600480360360a081101561007957600080fd5b810190808035906020019064010000000081111561009657600080fd5b8201836020820111156100a857600080fd5b803590602001918460018302840111640100000000831117156100ca57600080fd5b91908080601f016020809104026020016040519081016040528093929190818152602001838380828437600081840152601f19601f8201169050808301925050505050505091929192908035906020019064010000000081111561012d57600080fd5b82018360208201111561013f57600080fd5b8035906020019184600183028401116401000000008311171561016157600080fd5b91908080601f016020809104026020016040519081016040528093929190818152602001838380828437600081840152601f19601f820116905080830192505050505050509192919290803590602001906401000000008111156101c457600080fd5b8201836020820111156101d657600080fd5b803590602001918460018302840111640100000000831117156101f857600080fd5b91908080601f016020809104026020016040519081016040528093929190818152602001838380828437600081840152601f19601f8201169050808301925050505050505091929192908035906020019064010000000081111561025b57600080fd5b82018360208201111561026d57600080fd5b8035906020019184600183028401116401000000008311171561028f57600080fd5b91908080601f016020809104026020016040519081016040528093929190818152602001838380828437600081840152601f19601f820116905080830192505050505050509192919290803590602001906401000000008111156102f257600080fd5b82018360208201111561030457600080fd5b8035906020019184600183028401116401000000008311171561032657600080fd5b91908080601f016020809104026020016040519081016040528093929190818152602001838380828437600081840152601f19601f8201169050808301925050505050505091929192905050506108e8565b005b6103a66004803603602081101561039057600080fd5b8101908080359060200190929190505050610a2e565b60405180806020018060200180602001806020018060200186810386528b818151815260200191508051906020019080838360005b838110156103f65780820151818401526020810190506103db565b50505050905090810190601f1680156104235780820380516001836020036101000a031916815260200191505b5086810385528a818151815260200191508051906020019080838360005b8381101561045c578082015181840152602081019050610441565b50505050905090810190601f1680156104895780820380516001836020036101000a031916815260200191505b50868103845289818151815260200191508051906020019080838360005b838110156104c25780820151818401526020810190506104a7565b50505050905090810190601f1680156104ef5780820380516001836020036101000a031916815260200191505b50868103835288818151815260200191508051906020019080838360005b8381101561052857808201518184015260208101905061050d565b50505050905090810190601f1680156105555780820380516001836020036101000a031916815260200191505b50868103825287818151815260200191508051906020019080838360005b8381101561058e578082015181840152602081019050610573565b50505050905090810190601f1680156105bb5780820380516001836020036101000a031916815260200191505b509a505050505050505050505060405180910390f35b6108e6600480360360a08110156105e757600080fd5b810190808035906020019064010000000081111561060457600080fd5b82018360208201111561061657600080fd5b8035906020019184600183028401116401000000008311171561063857600080fd5b91908080601f016020809104026020016040519081016040528093929190818152602001838380828437600081840152601f19601f8201169050808301925050505050505091929192908035906020019064010000000081111561069b57600080fd5b8201836020820111156106ad57600080fd5b803590602001918460018302840111640100000000831117156106cf57600080fd5b91908080601f016020809104026020016040519081016040528093929190818152602001838380828437600081840152601f19601f8201169050808301925050505050505091929192908035906020019064010000000081111561073257600080fd5b82018360208201111561074457600080fd5b8035906020019184600183028401116401000000008311171561076657600080fd5b91908080601f016020809104026020016040519081016040528093929190818152602001838380828437600081840152601f19601f820116905080830192505050505050509192919290803590602001906401000000008111156107c957600080fd5b8201836020820111156107db57600080fd5b803590602001918460018302840111640100000000831117156107fd57600080fd5b91908080601f016020809104026020016040519081016040528093929190818152602001838380828437600081840152601f19601f8201169050808301925050505050505091929192908035906020019064010000000081111561086057600080fd5b82018360208201111561087257600080fd5b8035906020019184600183028401116401000000008311171561089457600080fd5b91908080601f016020809104026020016040519081016040528093929190818152602001838380828437600081840152601f19601f820116905080830192505050505050509192919290505050610d69565b005b600160009054906101000a900473ffffffffffffffffffffffffffffffffffffffff1673ffffffffffffffffffffffffffffffffffffffff163373ffffffffffffffffffffffffffffffffffffffff161415610a275760026040518060a00160405280878152602001868152602001858152602001848152602001838152509080600181540180825580915050906001820390600052602060002090600502016000909192909190915060008201518160000190805190602001906109ae929190610eae565b5060208201518160010190805190602001906109cb929190610eae565b5060408201518160020190805190602001906109e8929190610eae565b506060820151816003019080519060200190610a05929190610eae565b506080820151816004019080519060200190610a22929190610eae565b505050505b5050505050565b60028181548110610a3b57fe5b9060005260206000209060050201600091509050806000018054600181600116156101000203166002900480601f016020809104026020016040519081016040528092919081815260200182805460018160011615610100020316600290048015610ae75780601f10610abc57610100808354040283529160200191610ae7565b820191906000526020600020905b815481529060010190602001808311610aca57829003601f168201915b505050505090806001018054600181600116156101000203166002900480601f016020809104026020016040519081016040528092919081815260200182805460018160011615610100020316600290048015610b855780601f10610b5a57610100808354040283529160200191610b85565b820191906000526020600020905b815481529060010190602001808311610b6857829003601f168201915b505050505090806002018054600181600116156101000203166002900480601f016020809104026020016040519081016040528092919081815260200182805460018160011615610100020316600290048015610c235780601f10610bf857610100808354040283529160200191610c23565b820191906000526020600020905b815481529060010190602001808311610c0657829003601f168201915b505050505090806003018054600181600116156101000203166002900480601f016020809104026020016040519081016040528092919081815260200182805460018160011615610100020316600290048015610cc15780601f10610c9657610100808354040283529160200191610cc1565b820191906000526020600020905b815481529060010190602001808311610ca457829003601f168201915b505050505090806004018054600181600116156101000203166002900480601f016020809104026020016040519081016040528092919081815260200182805460018160011615610100020316600290048015610d5f5780601f10610d3457610100808354040283529160200191610d5f565b820191906000526020600020905b815481529060010190602001808311610d4257829003601f168201915b5050505050905085565b6000809054906101000a900473ffffffffffffffffffffffffffffffffffffffff1673ffffffffffffffffffffffffffffffffffffffff163373ffffffffffffffffffffffffffffffffffffffff161415610ea75760026040518060a0016040528087815260200186815260200185815260200184815260200183815250908060018154018082558091505090600182039060005260206000209060050201600090919290919091506000820151816000019080519060200190610e2e929190610eae565b506020820151816001019080519060200190610e4b929190610eae565b506040820151816002019080519060200190610e68929190610eae565b506060820151816003019080519060200190610e85929190610eae565b506080820151816004019080519060200190610ea2929190610eae565b505050505b5050505050565b828054600181600116156101000203166002900490600052602060002090601f016020900481019282601f10610eef57805160ff1916838001178555610f1d565b82800160010185558215610f1d579182015b82811115610f1c578251825591602001919060010190610f01565b5b509050610f2a9190610f2e565b5090565b610f5091905b80821115610f4c576000816000905550600101610f34565b5090565b9056fea265627a7a72305820783e8e605327f5031f23c96c5dcce66ba62e26bd903e43b40ad76048d125eabe64736f6c63430005090032",
  "source": "pragma solidity >=0.4.22 <0.6.0;\n\ncontract PatientRecords {\n\nstruct Patient {\n    string ID;\n    string name;\n    string Email;\n    string Contact_Number;\n    string Address;\n} \n\nstruct Doctor {\n    string ID;\n    string name;\n    string Email;\n    string Contact_Number;\n    string Address;\n} \n\naddress doctor;\naddress patient;\n\nconstructor() public {\n    doctor = msg.sender;\n        patient = msg.sender;\n}\n\nmodifier onlydoctor() {\n    if (msg.sender == doctor) {\n        _;\n    }\n} \n\nmodifier onlypatient() {\n    if (msg.sender == patient ) {\n        _;\n    }\n} \n\nmodifier onlyOwnerOrStudent() { \n         if (msg.sender == patient || msg.sender == doctor) _; \n}\n\n\nPatient[] public patients;\n\nfunction registerPatient(\n    string memory  _name, \n    string memory _ID, \n   string memory  _Email,  \n  string memory  _Contact_Number, string memory  _Address) public onlypatient {\n        patients.push(Patient(_name, _ID, _Email, _Contact_Number,_Address));\n    }\n\n\nfunction registerDoctor(\n    string memory  _name, \n    string memory _ID, \n   string memory  _Email,  \n  string memory  _Contact_Number, string memory  _Address) public onlydoctor {\n        patients.push(Patient(_name, _ID, _Email, _Contact_Number,_Address));\n    }\n}",
  "sourcePath": "/home/abhi/Medi_Records/contracts/PatientRecords.sol",
  "compiler": {
    "name": "solc",
    "version": "0.5.9+commit.e560f70d.Emscripten.clang"
  },
  "schemaVersion": "3.0.0",
  "updatedAt": "2019-07-09T09:38:00.899Z",
  "devdoc": {
    "methods": {}
  },
  "userdoc": {
    "methods": {}
  }
}